:020000020000FC
:100000000FEF0DBF08E00EBF00E007B90FEF08B912
:100010000AB900E01FEF60E006B11017E9F30E9493
:10002000490006B11017C1F3102F309B0E94230026
:10003000319B0E942A00329B0E943100339B0E9418
:100040003D000C940C0049B923952F70422F460FA8
:1000500049B9089549B92A952F70422F460F49B9D9
:10006000089549B953955F70652F661F661F661F17
:10007000661F462F420F49B9089549B95A955F70D6
:10008000652F661F661F661F661F462F420F49B900
:10009000089530E033953030E9F730E03395303073
:1000A000E9F730E033953030E9F730E03395303020
:0400B000E9F70895CF
:00000001FF
