:020000020000FC
:100000000FEF0DBF08E00EBF00E007B90FEF08B912
:100010000AB904B900E01FEF60E070E006B1101704
:10002000E9F30E94530006B11017C1F3102F309B63
:100030000E942800319B0E942F00329B0E943600B4
:10004000339B0E944200349B0E944E000C940E0091
:1000500049B923952F70422F460F49B9089549B9E0
:100060002A952F70422F460F49B9089549B95395E3
:100070005F70652F661F661F661F661F462F420F43
:1000800049B9089549B95A955F70652F661F661F73
:10009000661F661F462F420F49B9089573B9752F21
:1000A000720F73B9089530E033953030E9F730E0DE
:1000B00033953030E9F730E033953030E9F730E010
:0800C00033953030E9F7089593
:00000001FF
